:020000040000fa
:080000000002040000000000f2
:020000040000fa
:0400080026050000c9
:020000040000fa
:04000c002c050000bf
:020000040000fa
:0400100042050000a5
:020000040000fa
:0400140032050000b1
:020000040000fa
:0400180038050000a7
:020000040000fa
:04001c003e0500009d
:020000040000fa
:040020004605000091
:020000040000fa
:040024003e05000095
:020000040000fa
:040028003e05000091
:020000040000fa
:04002c003e0500008d
:020000040000fa
:040030003e05000089
:020000040000fa
:04003400fa020000cc
:020000040000fa
:040038003e05000081
:020000040000fa
:04003c003e0500007d
:020000040000fa
:040040003e05000079
:020000040000fa
:04004400980400001c
:020000040000fa
:040048003e05000071
:020000040000fa
:04004c003e0500006d
:020000040000fa
:040050003e05000069
:020000040000fa
:040054003e05000065
:020000040000fa
:040058003e05000061
:020000040000fa
:04005c003e0500005d
:020000040000fa
:040060003e05000059
:020000040000fa
:040064003e05000055
:020000040000fa
:040068003e05000051
:020000040000fa
:04006c00100300007d
:020000040000fa
:040070003e05000049
:020000040000fa
:040074003e05000045
:020000040000fa
:040078003e05000041
:020000040000fa
:04007c003e0500003d
:020000040000fa
:040080003e05000039
:020000040000fa
:040084003e05000035
:020000040000fa
:040088003e05000031
:020000040000fa
:04008c003e0500002d
:020000040000fa
:040090003e05000029
:020000040000fa
:040094003e05000025
:020000040000fa
:040098003e05000021
:020000040000fa
:04009c003e0500001d
:020000040000fa
:0400a0003e05000019
:020000040000fa
:0400a4003e05000015
:020000040000fa
:0400a8003e05000011
:020000040000fa
:0400ac003e0500000d
:020000040000fa
:0400b0003e05000009
:020000040000fa
:0400b4003e05000005
:020000040000fa
:0400b8003e05000001
:020000040000fa
:0400bc003e050000fd
:020000040000fa
:0400c0003e050000f9
:020000040000fa
:0400c4003e050000f5
:020000040000fa
:0400c8003e050000f1
:020000040000fa
:0400cc003e050000ed
:020000040000fa
:0400d0003e050000e9
:020000040000fa
:0400d4003e050000e5
:020000040000fa
:0400d8003e050000e1
:020000040000fa
:0400dc003e050000dd
:020000040000fa
:0400e0003e050000d9
:020000040000fa
:0400e4003e050000d5
:020000040000fa
:0400e8003e050000d1
:020000040000fa
:0400ec003e050000cd
:020000040000fa
:0400f0003e050000c9
:020000040000fa
:0400f4003e050000c5
:020000040000fa
:0400f8003e050000c1
:020000040000fa
:0400fc003e050000bd
:020000040000fa
:040100003e050000b8
:020000040000fa
:040104003e050000b4
:020000040000fa
:040108003e050000b0
:020000040000fa
:04010c003e050000ac
:020000040000fa
:040110003e050000a8
:020000040000fa
:040114003e050000a4
:020000040000fa
:040118003e050000a0
:020000040000fa
:04011c003e0500009c
:020000040000fa
:040120003e05000098
:020000040000fa
:040124003e05000094
:020000040000fa
:040128003e05000090
:020000040000fa
:04012c003e0500008c
:020000040000fa
:040130003e05000088
:020000040000fa
:040134003e05000084
:020000040000fa
:040138003e05000080
:020000040000fa
:04013c003e0500007c
:020000040000fa
:040140003e05000078
:020000040000fa
:040144003e05000074
:020000040000fa
:040148003e05000070
:020000040000fa
:04014c003e0500006c
:020000040000fa
:040150003e05000068
:020000040000fa
:040154003e05000064
:020000040000fa
:040158003e05000060
:020000040000fa
:04015c003e0500005c
:020000040000fa
:040160003e05000058
:020000040000fa
:040164003e05000054
:020000040000fa
:040168003e05000050
:020000040000fa
:04016c003e0500004c
:020000040000fa
:040170003e05000048
:020000040000fa
:040174003e05000044
:020000040000fa
:040178003e05000040
:020000040000fa
:04017c003e0500003c
:020000040000fa
:040180003e05000038
:020000040000fa
:040184003e05000034
:020000040000fa
:040188003e05000030
:020000040000fa
:04018c003e0500002c
:020000040000fa
:040190003e05000028
:020000040000fa
:040194003e05000024
:020000040000fa
:040198003e05000020
:020000040000fa
:04019c003e0500001c
:020000040000fa
:0401a0003e05000018
:020000040000fa
:0401a4003e05000014
:020000040000fa
:0401a8003e05000010
:020000040000fa
:0401ac003e0500000c
:020000040000fa
:0401b0003e05000008
:020000040000fa
:0401b4003e05000004
:020000040000fa
:0401b8003e05000000
:020000040000fa
:0401bc003e050000fc
:020000040000fa
:0401c0003e050000f8
:020000040000fa
:0401c4003e050000f4
:020000040000fa
:0401c8003e050000f0
:020000040000fa
:0401cc003e050000ec
:020000040000fa
:0401d0003e050000e8
:020000040000fa
:0401d4003e050000e4
:020000040000fa
:0401d8003e050000e0
:020000040000fa
:0401dc003e050000dc
:020000040000fa
:0401e0003e050000d8
:020000040000fa
:0401e4007e11000088
:020000040000fa
:0401e8003e050000d0
:020000040000fa
:0401ec008c11000072
:020000040000fa
:0401f0003e050000c8
:020000040000fa
:0401f4003e050000c4
:020000040000fa
:0401f8003e050000c0
:020000040000fa
:0401fc007e0400007d
:020000040000fa
:040200003e050000b7
:020000040000fa
:040204003e050000b3
:020000040000fa
:040208003e050000af
:020000040000fa
:04020c003e050000ab
:020000040000fa
:040210003e050000a7
:020000040000fa
:040214003e050000a3
:020000040000fa
:040218003e0500009f
:020000040000fa
:04021c003e0500009b
:020000040000fa
:040220003e05000097
:020000040000fa
:040224003e05000093
:020000040000fa
:040228003e0500008f
:020000040000fa
:04022c003e0500008b
:020000040000fa
:040230003e05000087
:020000040000fa
:040234003e05000083
:020000040000fa
:040238003e0500007f
:020000040000fa
:04023c003e0500007b
:020000040000fa
:040240003e05000077
:020000040000fa
:040244003e05000073
:020000040000fa
:040248003e0500006f
:020000040000fa
:04024c003e0500006b
:020000040000fa
:040250003e05000067
:020000040000fa
:040254003e05000063
:020000040000fa
:040258003e0500005f
:020000040000fa
:04025c003e0500005b
:020000040000fa
:040260003e05000057
:020000040000fa
:040264003e05000053
:020000040000fa
:040268003e0500004f
:020000040000fa
:04026c003e0500004b
:020000040000fa
:040270003e05000047
:020000040000fa
:040274003e05000043
:020000040000fa
:040278003e0500003f
:020000040000fa
:04027c003e0500003b
:020000040000fa
:040280003e05000037
:020000040000fa
:040284003e05000033
:020000040000fa
:040288003e0500002f
:020000040000fa
:04028c003e0500002b
:020000040000fa
:040290003e05000027
:020000040000fa
:040294003e05000023
:020000040000fa
:040298003e0500001f
:020000040000fa
:04029c003e0500001b
:020000040000fa
:0402a0003e05000017
:020000040000fa
:0402a4003e05000013
:020000040000fa
:0402a8003e0500000f
:020000040000fa
:0402ac003e0500000b
:020000040000fa
:0402b0003e05000007
:020000040000fa
:0402b4003e05000003
:020000040000fa
:0402b8003e050000ff
:020000040000fa
:0402bc003e050000fb
:020000040000fa
:0402c0003e050000f7
:020000040000fa
:0402c4003e050000f3
:020000040000fa
:0402c8003e050000ef
:020000040000fa
:0402cc003e050000eb
:020000040000fa
:0402d0003e050000e7
:020000040000fa
:0402d4003e050000e3
:020000040000fa
:0402d8003e050000df
:020000040000fa
:0402dc003e050000db
:020000040000fa
:0402e0003e050000d7
:020000040000fa
:0402e4003e050000d3
:020000040000fa
:0402e8003e050000cf
:020000040000fa
:0402ec00900300007b
:020000040000fa
:0402f000fa0300000d
:020000040000fa
:0402f4003e050000c3
:020000040000fa
:0402f8003e050000bf
:020000040000fa
:10040000ef0921008efe22000e018800000000008e
:10041000000020000000e000020032000001200087
:1004200020028800140007009a0107000000e00085
:1004300003003a0040fc20000100200002003700c9
:100440000000200001002000810f70000100320038
:100450000f000700000020000000e0000200320052
:100460000000020000000000a810020000000000d0
:100470000040da000000fe00200d20000000e00037
:1004800002003200002020009001880000000600d9
:10049000a1028800800478000000eb001f003700f4
:1004a000e284440054a0b4009905ba00e2844400f8
:1004b00054a0b4009906ba00e284440054a0b400e9
:1004c0000006eb00476fde00fd07b200ae018800ba
:1004d000636ce10003003a000ad801000000eb0061
:1004e0000e003700606ce10008003a00004deb00a0
:1004f0000a05e800020039003420ec000af0a000f0
:100500008b05e900f9ff3e00040037006168e10057
:10051000010032000086eb000b00070019c7ba008b
:100520000e04e0001905ba0003003a000a00e000da
:10053000dbff3a0000000600fe07b200ae028800b2
:100540008a047800f5ff37000cd0a300e20f4d00bd
:100550001c00390089027800354dba000a05e80010
:10056000020039003420ec000af0a0008b05e900fd
:100570000f003200254dba000a05e80002003900dc
:100580003420ec000af0a0008b05e90008003200de
:100590000c00e0000600320015cdba000a05e800a4
:1005a000020039003420ec000af0a0008b05e900bd
:1005b0008984e80054a0b4000b00e000e2ff3a0098
:1005c000000006009902ba00055d78008b05e9007d
:1005d000f7ff3200c82ade00055d78008b05e900d0
:1005e000f3ff32000c00e000f1ff320019ddba0029
:1005f000eeff3700801f78000000fa002ad0bf000d
:100600002af0b7002ad0bf002af0b7000002a800e5
:100610000068a9000080fa004f0078000040060042
:10062000809fbe000000fa000000000016d0bf004e
:100630000000fb00e20f500018003200e20f5000f3
:1006400005003c000000e00008003200e10f50000f
:10065000090032002b003700e30f50001800320071
:10066000e40f50001d003200260037000004200077
:10067000601088002300370021108000000028004f
:10068000008060000000e00019003a002bd0bf009d
:100690000080fb00601088001a00370021108000e5
:1006a00000002800008060000000e00012003a0016
:1006b0002ad0bf000080fb006010880011003700c6
:1006c0002110800000002800008060000000e00091
:1006d0000b003a000042a8000a00370010c0b30027
:1006e00014f0b70000c0eb0016f0b70005003700ab
:1006f0000000000003003700000000000100370088
:100700000000000016d0bf000040e80016f0b7005f
:100710000228a9000080fa004f00be000040060039
:10072000809fbe000000fa00f119800050552000a3
:10073000808f50000b003a00a003a800904d2000cd
:10074000e0198800d0642000f01988000080800043
:10075000700060000000e00022003a000070a80075
:1007600020003700d1208000c0642000808f50001e
:1007700007003600a063a9000090a8000070a9003f
:1007800090c0b3002af0b7000002a800150037009f
:10079000d1208000904d2000808f500011003e003d
:1007a000a003a900a063a80050552000f0198800fc
:1007b00000808000680060000000e000020032005d
:1007c0000070a90007003700008080007000600002
:1007d0000000e000030032000090a9002a70ef0042
:1007e0000002a8001628a9000080fa004f00be00f1
:1007f00000400600809fbe000000fa00311a800011
:10080000609a2000808f50001a003a00a463a9006b
:10081000a403a90060932000301a880040692000da
:10082000201a880041808000509a2000808f50005c
:1008300002003600a443a80001003700a423a8004a
:10084000232ca800230ca800430ca8002de8a90025
:100850002e28a9004225ef004625ef000010a80031
:100860002a70ef0090c0b3002af0b7000002a80081
:100870001e003700a443a900a423a900609a200009
:10088000301a880040622000201a8800a463a80063
:10089000a403a8000010a90080ff22008000eb0044
:1008a0000108780080ff22008000eb001100980012
:1008b00080ff22008000eb002100980080ff2200d2
:1008c0008000eb00310098001030ef002de8a80008
:1008d000232ca900230ca9000210a8002a70ef0005
:1008e0000002a8000621ef0011e1a8001648a900a7
:1008f0000080fa004f00be0000400600801f780014
:100900000000fa00f08080000000e800f08088001d
:10091000a020800040808800d02080007080880067
:100920000ea8a9000080fa004f00780000400600e1
:100930003600f800809fbe00829fbe00849fbe00ec
:10094000869fbe00881f78000000fa00108080009b
:10095000610060000000e0002a003200808080001a
:100960008000780060c12000808f500021003e0090
:1009700080808000680040008080880080ff220026
:1009800010007800cf80de004500070018c0b300db
:1009900002002700134424003f0007000000e0008d
:1009a00001003c000044eb000804e00015003200a8
:1009b00015d0bf000040e80015f0b70015d0bf000b
:1009c000e24f50000f003600232ca800230ca80093
:1009d000a10221009140780080cfb30000c06000e8
:1009e0002af0b7000002a8000030a8000de8a90016
:1009f000040037001570ef0070c12000808088006f
:100a00000210a90010808000610060000000e0007a
:100a100005003a0010808000620060000000e000e5
:100a200001003a0011e1a90000e8a9000080fa00e5
:100a30004f0478004f03be004f02be004f01be00be
:100a40004f00be003600f900004006000000fa002a
:100a5000c028a900ffff37000000fa00c068a90005
:100a6000ffff37000000fa00c048a900ffff370071
:100a70000000fa00c088a900ffff37000000fa005c
:100a8000ffff37000000fa00ffff37000000fa0008
:100a9000ffff370000000500f4ff2f0003003700c0
:100aa0004f89de00820178001b003700889fbe005e
:100ab0008a9fbe00841f78007c0007004f007800ea
:100ac00011003300f0ff2f00838f6c0006003b0005
:100ad000040565000a00a7000800370009f0a60019
:100ae0001000200008003700820f5400838f5c0044
:100af000030039001000200001003e00000020002b
:100b000009f0a7000000ea004f05be004f04be0038
:100b10000000e00000000600881f78000304780051
:100b20000300e00007003d0060001000e0801800b6
:100b300060011900e081190002003b0001f02d0066
:100b4000030037000400070008f0a70001f0a00030
:100b50004f04780000000600889fbe008a9fbe00f8
:100b600000827000040271000482710026003200cd
:100b70000004be000200be006011b8006b09200036
:100b8000950220000182cf000a0039000541b10022
:100b90000082cf00070039000541b1000982cf0073
:100ba000040039000541b1000882cf00010039007e
:100bb0000541b10005425200120032000a003b001c
:100bc00082817100610164008100d1000080d30046
:100bd0008984d3000884d3008b05e8000442e80030
:100be000f7ff3a00070037000804440089844c00ee
:100bf00000004800818048008b05e9000442e900bc
:100c0000f9ff3a00030007004f05be004f04be0085
:100c10000000060081002000618055000b003d00af
:100c20000b00200061fe2f000100e1001d003400d8
:100c300082817100610164008904d1000884d300bd
:100c40000000e800faff3a00710020006100640033
:100c500003007000020060000900320061044400db
:100c6000e0844c000988a500050032008b05e800ef
:100c70006808e10002003a008904d1000884d3002a
:100c8000f20f20000258e10005003d00c75ddd00c5
:100c9000f907b2008980750008007800000006009e
:100ca0000bf827008b007800000005000004be0050
:100cb000060007000003be000405be000200be00df
:100cc00002000700844f750000000600c70ade001e
:100cd000f107b200f50fb20008003200e1cf420088
:100ce000020032000170a00024000500810f700096
:100cf000010032000408050044000500810f700067
:100d000002003a00140005008502e90000004000de
:100d100081c04800fcff3b000170a00024000500da
:020000040000fa
:100d2000426300006b2000004f75000074700000eb
:100d30007574000020460000617500006c740000ae
:100d4000004200006f6f0000737400003a20000042
:100d50004469000073610000626c0000656400007b
:100d600020000000204900004e50000055540000b3
:100d7000205600004f4c0000544100004745000041
:100d80002020000000200000202000002020000083
:100d900046410000554c0000542000002020000077
:100da0002020000020000000204f000056450000d9
:100db00052200000544500004d5000002046000025
:100dc000415500004c54000020000000204d000060
:100dd000494e0000204c00004f410000442000001c
:100de000454e0000414200004c450000200000003c
:100df000484900004748000020540000454d0000cd
:100e0000504500005241000054550000524500007a
:100e100020000000202000002020000020570000bb
:100e2000415200004e4900004e47000020200000c3
:100e300020200000200000000040000020440000ae
:100e40006967000069740000616c000020500000b8
:100e50006f77000065720000202000000020000075
:100e6000205300007461000072740000657200007d
:100e7000204b0000697400002020000020000000ca
:100e800020200000204d000049430000524f000088
:100e900043480000495000002020000020200000ae
:100ea0000064000073500000494300003333000029
:100eb0004550000036340000475300003530000034
:040ec00032000000fc
:020000040000fa
:100ec4000000fa00a0042000303a8800213a800093
:100ed400f0f32f0000806000203a8800213a80005f
:100ee40000fe2f0000806000203a880012002000dd
:100ef40080072000a1092000337420008049780075
:100f040081497800824978001200200060042000a2
:100f140071052000237420008049780081497800fd
:100f24008249780000000000113a80000000270088
:100f34008080600000002100808f5000faff3a009a
:100f440000000000113a80000002200000806000d0
:100f54000000e000fbff320050c7a80051a7a80022
:100f6400813a80000070200001007000803a8800ff
:100f740051e7a80000000000813a8000000024002e
:100f8400008060000000e000fbff3200c0da2000b7
:100f940001002000e60407000080fa0000000600bb
:100fa4000000fa0001e2a8000142a9000122a80001
:100fb400202b2000501088000228a9002228a80015
:100fc40041428000f0f82f0080806000000520007e
:100fd400010070004042880050c0b3002bf0b700fd
:100fe40000c2b3002af0b7000002a800000000000d
:100ff40014d0bf000004e000fdff32001470ef00c5
:101004002b70ef002a70ef000002a800000000001f
:1010140014d0bf000004e000fdff32001470ef00a4
:101024000080fa00000006000000fa00a041200041
:101034006008880081088000f0fc2f0000806000b8
:10104400800888001021a90000e8a900114280004e
:10105400f0ff28000080600000e0a000104288003b
:1010640020e8a8000080fa00000006000000fa0052
:1010740023eca90023cca90011618000f03f2f00cc
:10108400008060001061880023aca900238ca900b3
:10109400232ca900230ca90011618000f0f32f0078
:1010a400008060001061880011618000f0fc2f0056
:1010b400008060000040a000106188000161800091
:1010c400f0f32f000080600000618800000520001c
:1010d40050618800e006200060618800200ca900af
:1010e400212ca9002161800070f02f008080600015
:1010f400800620000100700020618800244ca900b3
:1011040021618000c0ff2f00008060000000a0006b
:10111400206188003beca8003b6ca800e1618000e2
:1011240070002f0080806000000a20000100700021
:10113400e0618800a1618000f0ff20000080600071
:1011440000c0a000a0618800a161800000fc2f0005
:1011540000806000a061880050a5200030618800f4
:10116400e0012000906188000080fa000000060081
:101174000000fa0043eca90043cca90011628000ee
:10118400f03f2f000080600000a0a00010628800e3
:10119400438ca900430ca90011628000f0f32f00d6
:1011a400008060001062880001628000f0f32f006c
:1011b400008060000070a00000628800400ca9005c
:1011c400412ca9002162800070f02f008080600013
:1011d400000720000100700020628800444ca90030
:1011e40021628000c0ff2f00008060000000a0008a
:1011f400206288005baca8005b6ca800e162800000
:1012040070002f0080806000000a20000100700040
:10121400e0628800a1628000f0ff2000008060008e
:1012240000c0a000a0628800a162800000fc2f0022
:10123400008060000000a000a062880020608000a0
:101244000000d1004062880090972000306288003e
:10125400e0012000906288000080fa00000006008f
:101264000000fa00a163800000fc2f0000806000f1
:10127400a0638800401f200090638800a163800061
:10128400f0ff200080806000000025000100700055
:10129400a0638800206380003000b30020638800ce
:1012a40011638000f03f2f000080600000a0a000c8
:1012b4001063880063cca90063eca9000080fa00e5
:1012c400000006000000fa00012a8000f0f32f005d
:1012d40000806000002a8800012a8000f07f2e0030
:1012e4000080600000b0a000002a88004005a8002b
:1012f40030b92000102a880041e5a8000080fa00d7
:10130400000006000000fa0051188000f0ff2300de
:101314000080600000e0a000501888005118800090
:10132400f00f2c000080600050188800b11e80006f
:1013340000f82f0000806000b01e8800d11e8000dd
:1013440000f82f0000806000d01e8800f11e80008d
:1013540000f82f0000806000f01e8800111f80003c
:1013640000f82f0000806000101f88002118800002
:1013740000f82f00008060002018880002e3a90014
:1013840041188000f0ff21000080600040188800b0
:101394001118800000062000010070001018880059
:1013a400b11e80000030200001007000b01e8800d3
:1013b400d11e80000030200001007000d01e880083
:1013c400f11e80000030200001007000f01e880033
:1013d400111f80000030200001007000101f8800e1
:1013e4003118800000c02f00008060000010a000b1
:1013f400301888001023ef0026000700011c80002d
:1014040000fe2f00008060005000b300001c880024
:10141400011c8000f00f2e0080806000005020002e
:1014240001007000001c88000de8a900b143800091
:101434000000270001007000b0438800211c8000d8
:1014440000fe2f00008060007000b300201c8800a4
:10145400311c8000f00f2e0080806000007020009e
:1014640001007000301c88000ea8a900d143800040
:10147400f0f82f008080600000052000010070005b
:10148400d04388002ea8a80020e3a8000080fa001a
:10149400000006000000fa0011208000f00f2f0069
:1014a4008080600000b020000100700010208800df
:1014b40001e3a8000004a80000000000012080004f
:1014c40000102000008060000000e000fbff3200fc
:1014d4000a03a8000024a8000000000001208000e6
:1014e40000202000008060000000e000fbff3200cc
:1014f4000a23a8000044a800000000000120800086
:1015040000402000008060000000e000fbff32008b
:101514000a43a8000064a800000000000120800025
:1015240000802000008060000000e000fbff32002b
:101534000a63a80000e4a800000000000120800065
:1015440000002800008060000000e000fbff320083
:101554000ae3a8000424a8000444a9000404a80081
:1015640000000000212080000008200000806000ae
:101574000000e000fbff32000424a9000524a800b9
:101584000544a9000504a8000000000021208000f3
:1015940000002800008060000000e000fbff320033
:1015a4000524a9000624a8000644a9000604a800ee
:1015b400000000003120800000082000008060004e
:1015c4000000e000fbff32000624a9000724a80065
:1015d4000744a9000704a80000000000312080008f
:1015e40000002800008060000000e000fbff3200e3
:1015f4000724a9000b24a8000b44a9000b04a8008d
:1016040000000000512080000000280000806000dd
:101614000000e000fbff32000b24a9000080fa0068
:10162400000006000000fa00a063a80038e3a80048
:1016340050552000f0198800a0e3a800a0c3a8001a
:10164400c1448000f0f82f00008060000060a0001a
:10165400c04488001628a9003628a800a463a8005e
:10166400a403a8004083a800609a2000301a8800d0
:1016740040622000201a8800a4e3a800a4c3a800a4
:10168400c1448000f08f2f000080600000a0a00003
:10169400c04488001648a9003648a8000080fa0013
:1016a400000006000000fa00f180800070fc2a00af
:1016b400808f5000190036001e30ef0019d0bf0093
:1016c4000040e80019f0b700008080000000e0004e
:1016d4000500320019d0bf00e44f500002003a0068
:1016e4005c01070009003700008080006100600091
:1016f4000000e0000400320010c0b30018f0b7008e
:1017040012000700010037001000070019d0bf00c5
:10171400e44f5000010036001970ef000080fa0019
:10172400000006000000fa0018d0bf000040e800e6
:1017340018f0b70018d0bf00e14f50000100360088
:101744001870ef000080fa00000006000c00fa0098
:10175400889fbe008a9fbe008c9fbe000000eb00e5
:10176400000f78000000eb00100798000000eb0069
:10177400200798000000eb00300798008040eb0041
:101784000040eb007e01070018d0bf000004e00019
:1017940036003a0000808000700060000000e00025
:1017a4000300320020032000d080880001003700ad
:1017b4001a30ef002080800041da20000180b90057
:1017c400c109dd004f01de0002817100420798006b
:1017d4004f89de0052079800ce019000030f780075
:1017e4001e007800d2032100210020004d000700d4
:1017f400d08080003204210021002000490007002d
:1018040030808000210624000180b9004109dd00f8
:101814004f06de000c067100cf8ede001c07980018
:101824001e009000d2042100210020003d0007008a
:1018340000808000620060000000e00003003200cd
:10184400006928006f0107000200370080032100af
:101854006c01070011c0b3000040eb004801070011
:10186400106a2800670107002900370040808000c3
:10187400f1a123000100b900c109dd004f05de001c
:101884000a857100cf8dde002a07980070808000e1
:10189400c026b10001a520000180b9004109dd0086
:1018a4004f04de0008047100cf8cde003807980076
:1018b4002e0090005206210021002000190007008c
:1018c400a170800000002200008060000000e000a1
:1018d40002003a00b00621000081880000818000e7
:1018e400ec0040003e00900001017800410020001f
:1018f4000c000700a00521004201070011c0b3003d
:101904000040eb001e010700008180003d0107003c
:101914004f06be004f05be004f04be000080fa0013
:10192400000006000a00fa0020079800310798001a
:10193400420798000040eb00204798000000eb00ad
:10194400000f78000000eb00000f7800060037005d
:101954001e007800ce0090000080400001c2b30059
:10196400014878001e0fe8001e007800e20f5000c6
:10197400f7ff34000000eb00000f78003e009000f9
:101984009e007800808f50000c003a004e009000ba
:1019940001c3b300014878004e0090000000e80045
:1019a400400798004e009000e1c2b300014878005f
:1019b4004e0090000000e800400798001e0fe80069
:1019c400ae009000803e2000000178001100090064
:1019d4008200d800204798002e4090008000fb0031
:1019e40080c12f008088b900ae00900000804000c4
:1019f400200798002e4090000004e0000900320007
:101a04002e4090000043b000804078004e009000cb
:101a1400014878004e0090000000e800400798005c
:101a24000a0037003e0090009e007800808f50002e
:101a3400060035004e00900001c3b3000148780051
:101a44004e0090000000e800400798003e0090001f
:101a54009e007800808f500006003a004e009000ef
:101a6400e1c2b300014878004e0090000000e80095
:101a7400400798001e0fe8002e019000b047210097
:101a84000090b900c388de004f90de000080500053
:101a9400204798002e4090008000fb00c0f92f00e2
:101aa4008088b900ae0090000080400020079800b4
:101ab4002e4090000004e000090032002e40900007
:101ac4000043b000804078004e0090000148780048
:101ad4004e0090000000e800400798000a0037001c
:101ae4003e0090009e007800808f50000600350074
:101af4004e00900001c3b300014878004e009000ee
:101b04000000e800400798003e0090009e00780026
:101b1400808f500006003a004e009000e1c2b300ee
:101b2400014878004e0090000000e800400798004b
:101b34001e0fe8002e019000706626000090b90088
:101b4400c288de004f90de000080500020479800dd
:101b54002e4090008000fb0060ff2f008088b900b9
:101b6400ae00900000804000200798002e409000b6
:101b74000004e000090032002e4090000043b00051
:101b8400804078004e009000014878004e0090009c
:101b94000000e800400798000a0037003e0090006b
:101ba4009e007800808f5000060035004e009000a3
:101bb40001c3b300014878004e0090000000e80023
:101bc400400798003e0090009e007800808f5000ef
:101bd40006003a004e009000e1c2b30001487800cc
:101be4004e0090000000e800400798001e0fe80037
:101bf4002e0090000000e0000a0032002e00900049
:101c0400004078000043b000804078004e0090000f
:101c1400014878004e0090000000e800400798005a
:101c24000a0037003e0090009e007800808f50002c
:101c3400060035004e00900001c3b300014878004f
:101c44004e0090000000e800400798000080fa0071
:101c5400000006000000fa008040eb000040eb00aa
:101c64004700070000808000610060000000e00081
:101c740008003200206b28006200070011c0b30086
:101c84000040eb003e000700306c28005d000700b8
:101c94001700370000808000700060000000e00042
:101ca40008003200406d28005600070011c0b30040
:101cb4000040eb0032000700606e2800510007006e
:101cc4000b00370000808000680060000000e00026
:101cd40007003200806f28004a00070011c0b300db
:101ce4000040eb0026000700a07028004500070014
:101cf4000080fa00000006000400fa002047980063
:101d040000c8b300004f780014003700154ea90036
:101d1400000000006004200001002000840107008e
:101d24002e4090001e4060000004e00002003200db
:101d3400142ea80001003700142ea900154ea80087
:101d4400000000006004200001002000780107006a
:101d54001e80fb000000d100004f78001e40780078
:101d64000004e000e9ff3a00156ea800c0da200084
:101d7400010020006e0107000080fa000000060048
:101d84000200fa00004f7800114798001e409000ae
:101d94000080fb00c17128000080400010407800e2
:101da4001e4040000074a000660007000080fa0096
:101db400000006000000fa0010c0b3006100070034
:101dc4008057200001002000590107000080fa001c
:101dd400000006000400fa00004f78001107980084
:101de4001e80fb00c1712800008040001040780074
:101df400540007001e009000020007000080fa0053
:101e0400000006000200fa00000f7800040037000a
:101e14001e007800104078001e0fe80051000700f3
:101e24001e007800104078000004e000f8ff3a003b
:101e34000080fa00000006000000fa0011eea9007c
:101e4400116ea90010aea900102ea900114ea90010
:101e540015eea900003f2b00a1012000340107006a
:101e640015eea80000c3b30036000700003f2b00a6
:101e7400a10120002e01070000c3b30031000700b8
:101e840000c3b3002f00070090c3b3002d00070068
:101e940040c1b3002b00070060c5b3002900070050
:101ea400d0c6b3002700070000c7b3002500070011
:101eb400c0c0b3002300070060c0b30021000700c6
:101ec40010c0b3001f000700007a2300010a20009d
:101ed400170107008040eb000040eb00a8ff07005b
:101ee400e0712800c7ff070011c0b3000040eb00f9
:101ef400a3ff0700f0722800c2ff070000c42200fd
:101f0400216420000a0107008040eb000040eb0040
:101f14009bff070000742800baff070011c0b3003c
:101f24000040eb0096ff070010752800b5ff07007e
:101f340000d82100c1422000fd0007000080fa0003
:101f4400000006000200fa00004f7800156ea90098
:101f540014aea9001e40780067ff07000080fa0055
:101f6400000006000200fa00004f7800156ea90078
:101f740014aea8001e4078005fff07000080fa003e
:041f84000000060053
:020000040000fa
:101f88002a1000000200000080000000001000007d
:101f980018000000800000002c1000000200000063
:101fa80080000000f82f00000800000080000000fa
:101fb8002e1000000a00000080000000221000001f
:101fc80008000000800000003810000066000000d3
:101fd80082000000427563006b2030002e30300014
:101fe800562030002e303000570042007374200015
:101ff80030302e00303056002045580054524e00e4
:1020080000565f00496e700075743a002020200069
:102018002020200020560000427563006b205400e9
:10202800656d70003a202000202020004300420007
:102038006f6f730074205400656d70003a202000a3
:102048002020430000416d0062205400656d70003f
:102058003a20200020202000204300001810000013
:0c2068000a0000008000000000000000e2
:020000040000fa
:102074004400f80013018800240188003501880019
:10208400040820002402880091025000050d780005
:10209400390278001201c0000700c8000400cd0016
:1020a4001301c1000400cd00240598001b20e600a4
:1020b4000b0278001ca0e6000c02780004097800ea
:1020c4001800a7000d0037001810a7000100370002
:1020d4000f003700b801900093017800848151000b
:1020e400c199de00848141009802900085814100fd
:1020f400a8029000830a780005003700c1a1de0021
:102104009802900085814100a8029000830a78001b
:102114004606c3004606c0004606c0000206c000cc
:102124001605c000e8845400aa0190003305980005
:102134009a0178001305980013018000240180009f
:10214400350180004400f900000006000000fa0098
:102154000030ef0011aea900118ea9002cd0bf00f1
:10216400614060000080fb00610060004d00dd0004
:10217400a2708000f1ff2d00810061000100700059
:10218400a07088004efb070085fb0700a6fb070034
:102194004cfc07005bfc070022fd070026ff07003c
:1021a40070a82000206088001160800080ff2f004c
:1021b400008060001060880029fc0700158ea900cb
:1021c400aafb0700120007000210a800422cef002f
:1021d40001eca800200d200001002000540007009d
:1021e40023eca80023cca8002de8a8002023a800f5
:1021f4001a30ef0011e1a8002b000700e14f500056
:1022040001003a0047fd070026fd0700faff3700ea
:102214000000fa0080ff22008000eb000108780033
:1022240080ff22008000eb001100980080ff220054
:102234008000eb002100980080ff22008000eb006a
:1022440031009800c0ff270070818800a00e200094
:1022540080818800e00e280090818800d0682100e9
:10226400a0818800308f2f00b081880020022100d7
:102274008000eb0001087800200221008000eb00c0
:10228400110098002002210021c3200021009800a1
:102294002002210041c020003100980032000700d4
:1022a4000080fa00000006000000fa00917080002f
:1022b40000102000008060000000e0000b003a00e5
:1022c4000300370000cc250051012000180007004e
:1022d4009170800000102000008060000000e00089
:1022e400f8ff320010c0b300010037000040eb00db
:1022f4000080fa0000000600808080003a1002008e
:102304000000000070208000208088000de8a900f3
:1023140000400600908080003a1002000000000097
:1023240090208000308088000e28a900004006001c
:020000040000fa
:10233400f03fb1000180b10006003500ee03090052
:1023440000000000403fb1000180b100fbff3d00f0
:102354001000b000203fb0000200350000800900ea
:0823640000000000000006006b
:020000040000fa
:10236c0001e0fe00e1402000225420003621240030
:10237c00c7ff2f0028022100e90221008aff22005a
:10238c000b002000fcff200000e0fe000000060017
:020000040000fa
:020000040001f9
:045f3000f8ff000076
:020000040000fa
:020000040001f9
:045f38007bff0000eb
:020000040000fa
:020000040001f9
:045f40009fff0000bf
:020000040000fa
:020000040001f9
:045f5000deff000070
:020000040000fa
:020000040001f9
:045f5800feff000048
:020000040000fa
:020000040001f9
:045f6000deff000060
:00000001FF
